:020000040800F2
:10000000002000208D620008A9220008AF2200080D
:1000100000000000000000000000000000000000E0
:10002000000000000000000000000000B5220008F1
:100030000000000000000000BF220008C9220008E4
:10004000DD620008DD620008DD620008DD62000894
:10005000DD6200085123000867230008DD62000804
:1000600000000000DD620008D9220008FD2200081F
:10007000DD620008DD62000800000000DD620008AB
:100080000000000000000000000000000000000070
:10009000DD62000800000000DD620008DD6200088B
:1000A00000000000DD620008000000000000000009
:1000B0002123000839230008000000000000000090
:1000C00010B5064C2378002B07D1054B002B02D02E
:1000D000044800E000BF0123237010BD9C000020F5
:1000E00000000000F06B0008044B10B5002B03D09B
:1000F0000349044800E000BF10BDC04600000000F6
:10010000A0000020F06B0008002243088B4274D34B
:1001100003098B425FD3030A8B4244D3030B8B4208
:1001200028D3030C8B420DD3FF22090212BA030C11
:100130008B4202D31212090265D0030B8B4219D3F2
:1001400000E0090AC30B8B4201D3CB03C01A524112
:10015000830B8B4201D38B03C01A5241430B8B425A
:1001600001D34B03C01A5241030B8B4201D30B0343
:10017000C01A5241C30A8B4201D3CB02C01A52416A
:10018000830A8B4201D38B02C01A5241430A8B422D
:1001900001D34B02C01A5241030A8B4201D30B0216
:1001A000C01A5241CDD2C3098B4201D3CB01C01A30
:1001B000524183098B4201D38B01C01A524143093A
:1001C0008B4201D34B01C01A524103098B4201D328
:1001D0000B01C01A5241C3088B4201D3CB00C01A95
:1001E000524183088B4201D38B00C01A524143080D
:1001F0008B4201D34B00C01A5241411A00D2014632
:10020000524110467047FFE701B5002000F006F8A4
:1002100002BDC0460029F7D076E770477047C04658
:10022000002B11D1002A0FD1002900D1002802D0C3
:100230000021C943080007B4024802A140180290F7
:1002400003BDC046D9FFFFFF03B4684601B502985D
:1002500000F006F8019B9E4602B00CBC7047C046F9
:10026000F0B557464E464546DE46E0B504000D0063
:100270009246994683B08B4230D82DD0494650469D
:1002800000F0BAF829000600200000F0B5F8331A93
:100290009846203B9B4633D45A46534693404246A9
:1002A0001F00534693401E00AF423AD8AF4200D1E0
:1002B00078E05B46A41BBD41002B00DA75E000220C
:1002C00000230092019301235A4693400193012396
:1002D00042469340009328E08242CFD90022002377
:1002E000009201930C9B002B01D01C605D60009874
:1002F000019903B0F0BCBB46B246A946A046F0BD8A
:10030000424620239B1A5246DA40414613004A4691
:100310008A40170042461F43534693401E00AF4297
:10032000C4D900220023009201934346002BD9D068
:10033000FB0772081A4346467B080EE0AB4201D128
:10034000A2420CD8A41A9D41012024196D4100211C
:10035000013E24184D41002E06D0AB42EED9013E9D
:1003600024196D41002EF8D1009801995B460019BF
:100370006941002B24DB2B005A464446D3402A0017
:10038000E2401C005B461500002B2ADB26009E4045
:10039000330026004746BE403200801A9941009043
:1003A00001919FE7A342BCD883E742462023002166
:1003B0009B1A0022009101920122DA40019286E705
:1003C000424620239B1A2A0046469A402300F340C7
:1003D000444613432A00E2401C005B461500002BF4
:1003E000D4DA42462F002023260097409B1ADE4095
:1003F0003B003343CDE7C04610B5002903D100F0E0
:1004000007F8203002E0080000F002F810BDC046F6
:100410001C2101231B04984201D3000C10391B0A34
:10042000984201D3000A08391B09984201D30009F8
:10043000043902A2105C40187047C046040302024F
:1004400001010101000000000000000003B471463A
:10045000490840004900095E49008E4403BC7047CA
:1004600070B500260C4D0D4C641BA410A64209D19A
:10047000002606F0BDFB0A4D0A4C641BA410A642E0
:1004800005D170BDB300EB5898470136EEE7B300D5
:10049000EB5898470136F2E7E46E0008E46E000876
:1004A000E46E0008E86E000803008218934200D151
:1004B000704719700133F9E7B0B586B000AF02009C
:1004C0003960FB1D1A7000233B610023FB603B6811
:1004D000002B01D100233DE01723FC18FB1D1B78E6
:1004E000180001F079F8030023702FE0012002F0DA
:1004F00073FDFB680133FB600B257C19FB1D1B782A
:10050000180001F069F80300237029007A181720F9
:100510003B1812781B789A4206D03B187A1812784A
:100520001A7000233B6111E03B6901333B611722E4
:10053000BB18BA1812781A703B69132B06D93B689E
:100540000B22BA1812781A70012303E0FB68C72B3C
:10055000CCD900231800BD4606B0B0BD80B582B02E
:1005600000AFFB1D00221A70BB1D00221A7026E08E
:100570007B1D01221A707A1DBB1D1B78110018000B
:10058000FFF79AFF031E08D1BB1D1B78180001F06E
:1005900023F803001A007B1D1A707B1D1B781A00BC
:1005A000BB1D1B789A401300D9B2FB1DFA1D1278AF
:1005B0000A431A70BB1D1A78BB1D01321A70BB1D8D
:1005C0001B78022BD4D9FB1D1B781800BD4602B046
:1005D00080BD0000B0B584B000AF2F4A2F49304B2A
:1005E000180000F00DFD00F0D6FC00F014FE00F045
:1005F00017FF00F0F7F808203B182A4A1168196025
:1006000012791A713B1805221868596800F03BFBF3
:10061000031E04D0244B180000F0F2FC03E0234B2F
:10062000180000F0EDFC00237B6001F03FFA031E90
:1006300004D01F4B180000F0E3FC1FE03B1D180026
:1006400001F044FA031E04D01A4B180000F0D8FC45
:1006500014E07C687B68180001F072FA03001D004A
:100660007B68180001F092FA031E01D0124B00E0E3
:10067000124B13482A00210000F0C2FC012001F0B7
:100680009DF8104A104B1100180000F0B9FCC0464C
:10069000BD4604B0B0BDC046086C0008106C000830
:1006A0001C6C00081C6D00083C6C0008686C00089D
:1006B000946C0008B06C0008CC6C0008D06C00088A
:1006C000D46C000810270000F06C0008B0B584B0AE
:1006D00000AF0F243B1900221A7000F0FDFF030049
:1006E000BB6001F003F8BB68002B11D025003C195A
:1006F000FFF734FF030023707B191B78180000F00C
:10070000D7FA7B191A78244B1100180000F078FCF6
:1007100000F0B0FB02F056FC0300204A93420AD8D6
:100720001F4B1B78002B06D1052002F055FC1C4BFB
:1007300001221A702BE000237B603B1D180001F0A2
:10074000C5F9031E1CD17C687B68180001F0F8F91C
:1007500003001D007B68180001F018FA031E01D089
:10076000104B00E0104B11482A00210000F048FC1B
:100770007B68180001F0E4F90300180000F0BAFAF1
:100780000B4B180000F03CFC01F008F8C046C046D6
:10079000BD4604B0B0BDC046246D00080F27000060
:1007A000B8000020CC6C0008D06C0008D46C0008A5
:1007B000446D000880B582B000AF0200FB1D1A70C6
:1007C000064B01221A70064B1B68002B02D0044B0B
:1007D0001B689847C046BD4602B080BDC2000020DD
:1007E000C400002080B500AF094B00221A70094BED
:1007F0000022DA70074B00221A71002000F00EF878
:10080000054B1900032000F041FFC046BD4680BDE6
:10081000C2000020BC000020B507000880B582B0EF
:1008200000AF0200FB1D1A70FB1D1B78032B17D8AD
:100830000D4BFA1D1278DA70FB1D1A780B4B520023
:10084000D35C1900042000F0F3FEFB1D1B78074A5F
:100850005B00D31801331B781900052000F0E8FE77
:10086000C046BD4602B080BDBC0000206400002030
:1008700080B582B000AF78600A00BB1C1A807B682C
:10088000002B0AD0BB1C1B88002B06D0054B1B6815
:10089000BA1C11887A6810009847C046BD4602B05D
:1008A00080BDC0466C00002080B582B000AF78608B
:1008B0007B68002B06D0064B9B687A68100098472F
:1008C000030000E000231800BD4602B080BDC04612
:1008D0006C00002080B500AF024B1B78DBB2180023
:1008E000BD4680BDC200002080B500AF024B1B7921
:1008F0001800BD4680BDC046BC00002080B584B055
:1009000000AF78600A00BB1C1A800F23FB1800227E
:100910001A700C23FB1800221A8037E00C23FB18F6
:100920001B887A68D31819780F22BB18BA18127866
:100930004A401A700B23FB1800221A701BE00F218B
:100940007B181B785BB2002B09DA7B181B785B00E5
:100950005BB2072253405AB27B181A7005E00F238E
:10096000FA18FB181B78DB1813700B217B181A7808
:100970007B1801321A700B23FB181B78072BDED96A
:100980000C217B181A887B1801321A800C23FA1864
:10099000BB1C12881B889A42C0D30F23FB181B78FC
:1009A0001800BD4604B080BD80B582B000AFC0461F
:1009B000FB1D1800FFF778FF031EF9D1C046C046A3
:1009C000BD4602B080BD80B582B000AF0320FFF706
:1009D00025FF142002F000FB02F0F4FA03007B6014
:1009E00002E0012002F0F8FA032000F0F5FD031EFA
:1009F00006D102F0E7FA02007B68D31A632BF0D924
:100A0000C046BD4602B080BD80B500AF0020FFF7F4
:100A100005FF142002F0E0FAC046BD4680BDB0B527
:100A200086B000AFF86008007A6019000B243B190B
:100A3000021C1A700A257B190A1C1A701323FB1852
:100A400000221A70FFF7B0FF3B191B789AB2FB68BF
:100A500011001800FFF70CFF7B191B78002B02D048
:100A60007B68002B01D1012339E002F0ABFA0300CF
:100A70007B6118E013243B191B787A68D31818009F
:100A8000FFF712FF030019003B193A1912781A7088
:100A9000002908D03B191A783B1901321A7002F06C
:100AA00091FA03007B611323FA180A23FB181278CA
:100AB0001B789A4208D202F085FA02007B69D21AAA
:100AC00096235B009A42D5D31323FA180A23FB1806
:100AD00012781B789A4201D1012300E0002318000C
:100AE000BD4606B0B0BD90B587B000AF78600A00D3
:100AF000FB1C1A701723FB1800221A707B68002B4E
:100B000007D0FB1C1B78002B03D0FB1C1B78052B8C
:100B100001D9002338E010243B19C1221A703B1977
:100B2000C1225A703B19C1229A70FFF74CFF08236B
:100B3000FA18381905230321FFF771FF031E1ED091
:100B40001623FB1800221A700EE016203B181A78A4
:100B50003B181B7808217918895C7A68D1543B18B6
:100B60001A783B1801321A701623FA18FB1C1278F7
:100B70001B789A42E9D31723FB1801221A70FFF75A
:100B800043FF1723FB181B781800BD4607B090BD24
:100B900080B588B000AF0823FB1818605960FB1DB2
:100BA0001A701F23FB1800221A70FB1D1B78052BDF
:100BB00001D0002363E0FFF706FF1823FB18C022D3
:100BC0001A701E23FB1800221A7010E01E203B181A
:100BD0001A783B181B78013308217918895C182290
:100BE000BA18D1543B181A783B1801321A701E23D8
:100BF000FA18FB1D12781B789A42E7D3FB1D1B786D
:100C00000133D9B21823F81800230022FFF707FF99
:100C1000031E03D01F23FB1801221A701023FB1898
:100C200005211800FFF75FFF031E23D01E23FB18CA
:100C300000221A7017E01E217B181B781022BA18A8
:100C4000D25C7B181B7808217918CB5C9A4204D0BF
:100C50001F23FB1800221A700CE01E217B181A7843
:100C60007B1801321A701E23FA18FB1D12781B78AC
:100C70009A42E0D3FFF7C8FE1F23FB181B78180029
:100C8000BD4608B080BD90B585B000AF08243B19C3
:100C900018605960FB1D1A70FB1D1A783B19186803
:100CA0005968FFF775FF03001800BD4605B090BDF9
:100CB00080B582B000AF0200FB1D1A70FFF714FE72
:100CC000031E11D10A4BFA1D12781A71084B052127
:100CD0001800FFF713FE03001A00054B5A71044B6E
:100CE00006211800FFF7C4FDC046BD4602B080BD16
:100CF0008000002080B582B000AF0200FB1D1A709A
:100D0000FFF7F2FD031E11D10A4BFA1D12781A717A
:100D1000084B05211800FFF7F1FD03001A00054BF1
:100D20005A71044B06211800FFF7A2FDC046BD46CC
:100D300002B080BD8800002080B582B000AF78602E
:100D40007B6802331B78812B02D0822B0BD018E0FA
:100D50000E4B1B68002B11D00C4B1B681B78180026
:100D6000FFF7C8FF0AE00A4B1B68002B08D0084BAE
:100D70001B681B781800FFF79BFF01E0C04600E0EE
:100D8000C046C046BD4602B080BDC046CC00002073
:100D9000C800002090B585B000AF0200FB1D1A709E
:100DA00002F010F90200304B1A60304B1B78002B18
:100DB0000BD1FB1D1B785A2B50D12D4BFA1D1278ED
:100DC0001A702A4B01221A7048E0284B1B78190030
:100DD000274BFA1D12785A54244B1B780133DAB290
:100DE000224B1A70214B1B78022B11D10E217B183C
:100DF0001F4A52781A700A00BB181B78052B03D9BA
:100E0000BB181B78122B2BD9184B00221A7027E025
:100E1000174B5A78154B1B789A4222D10F243B1955
:100E2000134A52781A703B191B789BB2013B9AB255
:100E30000F4B11001800FFF761FD030019003B196B
:100E40001B78013B0A4AD35C994203D1084B180036
:100E5000FFF772FF054B00221A7002E0C04600E067
:100E6000C046BD4605B090BDE4000020E200002071
:100E7000D000002080B582B000AFFFF72BFD031E2D
:100E80001FD0FFF731FD031E1DD104E0FB1D1B78B1
:100E90001800FFF77FFFFB1D1800FFF705FD031E7D
:100EA000F4D10B4B1B78002B0ED002F08BF8020014
:100EB000084B1B68D31A322B06D9054B00221A7037
:100EC00002E0C04600E0C046BD4602B080BDC0465C
:100ED000E2000020E400002080B584B000AF0200F2
:100EE000FB1D1A70104B1B889BB201339AB20E2067
:100EF0003B187F210A401A800C4B1B889BB23A1882
:100F000012889A420BD0084B1B889BB21900084BE1
:100F1000FA1D12785A54044B3A1812881A80C046A7
:100F2000BD4604B080BDC046A8010020AA01002033
:100F30002801002080B500AF0449054B402218006D
:100F400005F001F9C046BD4680BDC046E80000205E
:100F50001004002080B584B000AF786002F032F851
:100F60000300FB6006E002F02DF80200FB68D31AD4
:100F7000C82B0BD87B68DB6F202BF4D17B681B68F8
:100F8000DB6940221340402BEDD100E0C046C04653
:100F9000BD4604B080BD80B500AFFFF7CBFFC046B3
:100FA000BD4680BD80B582B000AF78600A00BB1C32
:100FB0001A807B68002B1DD0BB1C1B88002B19D00E
:100FC0000E4B1B6840221A62BB1C1A8879680B4BB7
:100FD000180003F0F3FD031E07D0BB1C1A887968C4
:100FE0000648642303F04AFD05E0044B1800FFF7B0
:100FF000B1FF00E0C046BD4602B080BD1004002035
:101000000FB480B584B000AF1C23FB187B607B68F5
:10101000BA691048A02105F095F90300FB60FB6850
:10102000002B10DDFB689F2B02DCFB689AB200E00E
:101030009F220A217B181A807B181A88054B110001
:101040001800FFF7AFFFC046BD4604B080BC08BC27
:1010500004B01847AC01002090B585B000AF020085
:10106000BB1D1A80BB1D1B88402B02D9BB1D402213
:101070001A800E23FB1800221A800CE00E243B1964
:101080001B880B4AD35C1800FFF726FF3B191A8810
:101090003B1901321A800E23FA18BB1D12881B88D7
:1010A0009A42EBD3FFF746FFC046BD4605B090BD60
:1010B000E800002080B500AFFFF73CFFC046BD460A
:1010C00080BD000080B582B000AF78600A00BB1C14
:1010D0001A807B685B6E022B03D07B685B6E002BF3
:1010E00015D17B681B680C4A934205D1BB1C1B8839
:1010F0001800FFF7B1FF0BE07B681B68074A9342BB
:1011000006D1BB1C1B88180000F054F900E0C04653
:10111000BD4602B080BDC0460044004000480040CB
:1011200080B582B000AF78607B681B68084A934244
:1011300002D1FFF7BFFF06E07B681B68054A9342B8
:1011400001D100F065F9C046BD4602B080BDC04681
:10115000004400400048004080B584B000AF020069
:10116000FB1D1A70104B1B889BB201339AB20E20E4
:101170003B187F210A401A800C4B1B889BB23A18FF
:1011800012889A420BD0084B1B889BB21900084B5F
:10119000FA1D12785A54044B3A1812881A80C04625
:1011A000BD4604B080BDC0460C0300200E030020E5
:1011B0008C02002080B500AF0449054B4022180086
:1011C00004F0C1FFC046BD4680BDC0464C020020B1
:1011D0008803002080B584B000AF786001F0F2FE93
:1011E0000300FB6006E001F0EDFE0200FB68D31A8D
:1011F000C82B0BD87B68DB6F202BF4D17B681B6876
:10120000DB6940221340402BEDD100E0C046C046D0
:10121000BD4604B080BD80B500AFFFF7CBFFC04630
:10122000BD4680BD80B582B000AF78600A00BB1CAF
:101230001A807B68002B1DD0BB1C1B88002B19D08B
:101240000E4B1B6840221A62BB1C1A8879680B4B34
:10125000180003F0B3FC031E07D0BB1C1A88796882
:101260000648C82303F00AFC05E0044B1800FFF70A
:10127000B1FF00E0C046BD4602B080BD880300203B
:1012800080B500AF064B1B889BB21A00054B1B882C
:101290009BB2D31A1A007F2313401800BD4680BDAD
:1012A0000C0300200E03002080B582B000AF7860F0
:1012B000104B1B889AB2104B1B889BB29A4201D1EB
:1012C000002312E00B4B1B889BB21A000B4B9A5C5D
:1012D0007B681A70074B1B889BB201339BB27F223D
:1012E00013409AB2034B1A8001231800BD4602B086
:1012F00080BDC0460E0300200C0300208C0200209D
:1013000080B582B000AF78600B4B1B889AB20B4B54
:101310001B889BB29A4201D1002308E0064B1B8830
:101320009BB21A00064B9A5C7B681A700123180066
:10133000BD4602B080BDC0460E0300200C03002055
:101340008C02002080B584B000AF78600A00BB1C1E
:101350001A807B68002B01D1002327E0FFF790FF64
:101360000200BB1C1B889A4201D200231EE00E2300
:10137000FB1800221A8011E00E23FB181B887A68E4
:10138000D3181800FFF790FF031E01D100230DE0D2
:101390000E217B181A887B1801321A800E23FA1846
:1013A000BB1C12881B889A42E6D301231800BD4655
:1013B00004B080BD90B585B000AF0200BB1D1A809F
:1013C000BB1D1B88402B02D9BB1D40221A800E2357
:1013D000FB1800221A800CE00E243B191B880B4AD4
:1013E000D35C1800FFF7B8FE3B191A883B1901328D
:1013F0001A800E23FA18BB1D12881B889A42EBD361
:10140000FFF7D8FEC046BD4605B090BD4C02002097
:1014100080B500AFFFF7CEFEC046BD4680BD0000E0
:1014200090B58BB000AF0823FB18180014231A00E6
:101430000021FFF739F800237B622FE063497A6AC5
:101440001300DB009B189B005A58A023DB059A422F
:101450000BD15F4BDA6A5E4B01210A43DA625C4BC7
:10146000DB6A012213407B607B6858497A6A13006B
:10147000DB009B189B005B58564A93420BD1544BA0
:10148000DA6A534B02210A43DA62514BDB6A0222C9
:1014900013403B603B687B6A01337B627B6A052BB0
:1014A000CCDD00233B6247E048493A6A1300DB0089
:1014B0009B189B00CB1804331B881A0008203B188C
:1014C0001A6042493A6A1300DB009B189B00CB1854
:1014D00008331A683B185A603C493A6A1300DB002B
:1014E0009B189B00CB180C331A683B189A6037493D
:1014F0003A6A1300DB009B189B00CB1810331A6864
:101500003B18DA6031493A6A1300DB009B189B00F4
:10151000CB1814331A683B181A612C493A6A130025
:10152000DB009B189B005B583A181100180002F072
:101530003FFC3B6A01333B623B6A052BB4DD002371
:10154000FB613AE02149FA691300DB009B189B001C
:10155000CB1818331B68FF2B2CD01C49FA691300D9
:10156000DB009B189B00CB1818331B6858B2174937
:10157000FA691300DB009B189B00CB181C331C6816
:101580001249FA691300DB009B189B00CB1820332B
:101590001B681A00210003F0EBF90C49FA691300EB
:1015A000DB009B189B00CB1818331B685BB218003C
:1015B00003F0F3F9FB690133FB61FB69052BC1DD26
:1015C000C046C046BD460BB090BDC046686D000821
:1015D000001002400004005080B582B000AF02004D
:1015E000FB1D1A70FB1D1B78052B01D9012318E088
:1015F000FB1D1A780D491300DB009B189B005858FF
:10160000FB1D1A7809491300DB009B189B00CB18BF
:1016100004331B88190002F00BFE03005A1E93418D
:10162000DBB21800BD4602B080BDC046686D000840
:1016300080B582B000AF0200FB1D1A70BB1D0A1CF2
:101640001A70FB1D1B78052B1AD8FB1D1A780E4942
:101650001300DB009B189B005858FB1D1A780A49A1
:101660001300DB009B189B00CB1804331988BB1DAB
:101670001B785A1E9341DBB21A0002F0F6FD00E01F
:10168000C046BD4602B080BD686D000880B582B01E
:1016900000AF02003960FB1D1A70FB1D1B78052B83
:1016A00012D8FB1D1A780A491300DB009B189B0017
:1016B000CB1818331B68FF2B07D0FB1D1A78054B7E
:1016C00092003968D15000E0C046BD4602B080BDEE
:1016D000686D00081403002080B500AF024B1B6842
:1016E0001800BD4680BDC0461003002080B500AF85
:1016F000024B00221A60C046BD4680BD1003002088
:1017000080B584B000AF0200BB1D1A800023FB60CF
:1017100035E01F49FA681300DB009B189B00CB18CB
:1017200018331B68FF2B0CD01949FA681300DB0033
:101730009B189B00CB1804331B88BA1D12889A4251
:1017400003D0FB680133FB6019E0FB68022B07D86C
:101750000122FB689A400F4B1B681A430D4B1A601D
:101760000D4BFA689200D358002B0CD00A4BFA6844
:101770009200D358FA68D2B21000984703E0FB6891
:10178000052BC6D900E0C046C046BD4604B080BDAA
:10179000686D0008100300201403002080B500AF1E
:1017A00001F03EFC0121012002F0DAFF00F016FA00
:1017B00001F044FCC046BD4680BD000080B582B04B
:1017C00000AF0200FB1D1A70FB1D1B78002B06D01A
:1017D000084B5A68074B03210A435A6005E0054B42
:1017E0005A68044B03218A435A60C046BD4602B082
:1017F00080BDC0460058014080B500AF0D4B0722A8
:101800009A630C4B180000F0CBFD031E01D001239E
:101810000DE0084B0021180001F0D0FA031E05D09E
:10182000044B180000F030FF012300E000231800F3
:10183000BD4680BD2C03002080B586B000AF3B1DA7
:10184000180014231A000021FEF72EFE0B4B18007F
:1018500000F01AFF3B1D40221A603B1D03225A6014
:101860003B1D00229A603A1DA023DB0511001800E1
:1018700002F09EFAC046BD4606B080BD2C03002093
:1018800090B587B000AF78600C243B19180008238E
:101890001A000021FEF708FE3B19214A5A603B1945
:1018A000204A1A603A19204B1100180001F0C4F8C0
:1018B0003B191E4A1A603A191B4B1100180001F01F
:1018C000BBF821007B18802252015A607B187A688D
:1018D0001A607A18144B1100180001F0ADF8031EBD
:1018E00001D0012318E07B68104A934213D101F024
:1018F00069FB03007B6106E001F064FB02007B6989
:10190000D31A052B06D80A4B1A6A8023DB0513402D
:10191000F2D000E0C04600231800BD4607B090BDDD
:1019200001100000400000182C03002000000244B9
:101930000000014080B584B000AF02003960FB1D9B
:101940001A700023FB600B23FB1800221A7022E0A0
:101950001E4B180000F034FF031E01D0012330E0BD
:101960001A4B0521180000F0BFFF031E05D0174BCE
:10197000180000F079FF022323E0144B180001F057
:101980004FF80200FB689B18FB600B217B181A784C
:101990007B1801321A700B23FA18FB1D12781B7882
:1019A0009A42D5D3094B180000F05EFFFB1D1B784F
:1019B0001900F868FEF7A8FB03001A003B681A60DC
:1019C00000231800BD4604B080BDC0462C03002093
:1019D000B0B584B000AF786039600F257C19FFF78F
:1019E0000BFF030023702A00BB181B78002B02D0CA
:1019F000BB181B7818E00F257C197B681800FFF7CF
:101A00003FFF030023707B191B78002B07D17C1943
:101A10003B6819000820FFF78DFF03002370FFF7D4
:101A20000BFF0F23FB181B781800BD4604B0B0BD98
:101A300090B585B000AF78600023BB60164A0E24D5
:101A40003B1912881A803B191B88002B1ED03B19AA
:101A50001B88124A934219D00823FB18104A190018
:101A60001000FFF7B5FF031E10D1BB68002B0DD08F
:101A70003B191B880B4A5343BA6811001800FEF744
:101A800043FB03001A007B681A6002E07B68064A89
:101A90001A60BD4605B090BD7800F81FFFFF00003A
:101AA00000000244B80B0000E40C000090B583B0C5
:101AB00000AFFC1DFFF7A0FE03002370FFF7BCFE84
:101AC000FB1D1B781800BD4603B090BDB0B586B0B5
:101AD00000AF78600023FB600023BB607B68002BB5
:101AE00001D1032324E00823FB181800FFF7A0FF0F
:101AF00017257C190C23FB180F4A19001000FFF75B
:101B000067FF030023707B191B78002B02D07B1921
:101B10001B780DE0BB68FA68534308491800FEF7CC
:101B2000F3FA03003B613B695A007B681A600023AB
:101B30001800BD4606B0B0BD40000018FF0F000001
:101B400080B582B000AF78607A68FA23DB009A42F1
:101B500001D8002312E07B680A4A934201D964232A
:101B60000CE07B6864225343074A94466344FA229C
:101B700091001800FEF7C8FA0300DBB21800BD465A
:101B800002B080BDB70B0000C0F2FCFF80B582B090
:101B900000AF78607B68054A934201D8012300E0DA
:101BA00000231800BD4602B080BDC0469708000063
:101BB00080B500AF01F0A0F900F010F800F088F84F
:101BC00000F0B0F900F0D4F900F000FA00F0E8F805
:101BD000FEF700FDFEF77AFDFCE7000090B599B036
:101BE00000AF2C243B19180034231A000021FEF703
:101BF0005BFC1823FB18180014231A000021FEF7C1
:101C000053FC3B00180018231A000021FEF74CFC7F
:101C10002A4B1B682A4A1A40284B802109010A4393
:101C20001A6021007B1802221A607B180122DA60F8
:101C30007B1810221A617B1802225A627B1800223C
:101C40009A627B180022DA627B188022D2031A6320
:101C50007B18180001F000FA031E01D000F032F8E2
:101C600018217B180F221A607B1803225A607B18F8
:101C700000229A607B180022DA607B1800221A6129
:101C80007B180121180001F063FD031E01D000F054
:101C900019F83B0006221A603B0000229A603B00C4
:101CA0000022DA603B00180001F056FF031E01D04D
:101CB00000F008F8C046BD4619B090BD0070004065
:101CC000FFE7FFFF80B500AF72B6C046FEE7000039
:101CD00090B589B000AF0C243B19180014231A00EA
:101CE0000021FEF7E1FB2C4BDA6A2B4B01210A4362
:101CF000DA62294BDB6A01221340BB60BB68264BCA
:101D0000DA6A254B02210A43DA62234BDB6A02229C
:101D100013407B607B68C0235900A023DB050022B1
:101D2000180002F0A2FA3B1901221A603B190022A6
:101D30005A603B1900229A603A19A023DB05110072
:101D4000180002F035F821007B18C02252001A60FA
:101D50000C003B1901225A603B1900229A603B1982
:101D60000022DA603A19A023DB051100180002F006
:101D70001FF83B19CB221A603B1900225A603B190D
:101D800000229A603B19054A1900100002F010F871
:101D9000C046BD4609B090BD00100240000400508E
:101DA00080B582B000AF3B00180008231A00002164
:101DB000FEF77AFB2A4B2B4A1A60294B0022DA6382
:101DC000274B8022D2055A60254B00229A60244B73
:101DD00000229A63224B01221A61214B0022DA6011
:101DE0001F4B2022002199541D4B21220021995480
:101DF0001B4B00229A621A4BC222FF325A62184BC6
:101E00002C2200219954164B04225A61144B0022B3
:101E10001A63134B00229A61114B00225A63104B34
:101E20000022DA610E4B180000F0BAFA031E01D04E
:101E3000FFF748FF3B000C4A1A603B00802252012A
:101E40005A603A00064B1100180000F0F5FD031E21
:101E500001D0FFF737FFC046BD4602B080BDC04687
:101E60002C030020002401404000001890B589B0E8
:101E700000AF78600C243B19180014231A000021CD
:101E8000FEF712FB7B681B68144A934222D1144B65
:101E90005A6B134B802189000A435A63104BDA6A4C
:101EA0000F4B01210A43DA620D4BDB6A012213401A
:101EB000BB60BB683B1940221A603B1903225A6081
:101EC0003B1900229A603A19A023DB051100180083
:101ED00001F06EFFC046BD4609B090BD0024014030
:101EE0000010024080B582B000AF78607B681B684C
:101EF000094A93420BD1094B5A6B084B08490A40D7
:101F00005A63A023DB054021180002F0BFF8C04649
:101F1000BD4602B080BDC046002401400010024012
:101F2000FFFDFFFF80B582B000AF104B1A6B0F4B67
:101F300001210A431A630D4B1B6B012213407B6086
:101F40007B68002200210A2002F012FD0A2002F024
:101F500024FD002200210B2002F00AFD0B2002F0DC
:101F60001CFDC046BD4602B080BDC0460010024008
:101F700080B500AF134B144A1A60124B962292019F
:101F80005A60104B00229A600E4B0022DA600D4B13
:101F900000221A610B4B0C225A610A4B00229A61F3
:101FA000084B00221A62074B00225A62054B1800A8
:101FB00002F010FD031E01D0FFF784FEC046BD46AF
:101FC00080BDC046880300200048004080B500AFB7
:101FD000144B154A1A60134BE12252025A60114BFE
:101FE00000229A600F4B0022DA600E4B00221A6129
:101FF0000C4B0C225A610B4B00229A61094B0022B8
:10200000DA61084B00221A62064B00225A62054B25
:10201000180002F0DFFC031E01D0FFF753FEC0469C
:10202000BD4680BD100400200044004090B58BB038
:1020300000AF786014243B19180014231A00002103
:10204000FEF732FA7B681B688C4A934200D086E028
:102050008B4B9A6B8A4B8021C9020A439A63884B47
:10206000DA6A874B01210A43DA62854BDB6A012277
:1020700013403B613B6921007B180C221A607B18DE
:1020800002225A607B1800229A607B180322DA60D1
:102090007B1806221A617A18A023DB0511001800AC
:1020A00001F086FE774B784A1A60764B05225A601B
:1020B000744B00229A60734B0022DA60714B8022CD
:1020C0001A61704B00225A616E4B00229A616D4B6F
:1020D0000022DA616B4B802252011A62694B1800B0
:1020E00002F0FCF8031E01D0FFF7ECFD7B68654AA7
:1020F0005A67644B7A689A62644B654A1A60634B0C
:1021000005225A60614B10229A60604B0022DA600F
:102110005E4B80221A615D4B00225A615B4B0022AC
:102120009A615A4B0022DA61584B802252011A629E
:10213000564B180002F0D2F8031E01D0FFF7C2FD83
:102140007B68524A1A67514B7A689A6200220021D2
:102150001D2002F00DFC1D2002F01FFC8AE07B68B0
:102160001B684C4A934200D084E0454B9A6B444B29
:10217000802189020A439A63414BDA6A404B01216C
:102180000A43DA623E4BDB6A01221340FB60FB68C4
:1021900014217B18C022D2001A607B1802225A60D8
:1021A0007B1800229A607B180322DA607B180422D5
:1021B0001A617A18A023DB051100180001F0F8FD60
:1021C000354B364A1A60344B04225A60324B002297
:1021D0009A60314B0022DA602F4B80221A612E4B1D
:1021E00000225A612C4B00229A612B4B0022DA61AB
:1021F000294B00221A62284B180002F06FF8031EC8
:1022000001D0FFF75FFD7B68234A5A67224B7A684B
:102210009A62234B234A1A60214B04225A60204BB6
:1022200010229A601E4B0022DA601D4B80221A6138
:102230001B4B00225A611A4B00229A61184B002254
:10224000DA61174B00221A62154B180002F046F8AB
:10225000031E01D0FFF736FD7B68114A1A67104B49
:102260007A689A62002200211C2002F081FB1C2067
:1022700002F093FBC046BD460BB090BD0048004045
:10228000001002409804002030000240E0040020CA
:102290001C00024000440040280500205800024075
:1022A000700500204400024080B500AFFEE780B515
:1022B00000AFFEE780B500AFC046BD4680BD80B52B
:1022C00000AFC046BD4680BD80B500AF00F068FEDF
:1022D000C046BD4680BD000080B500AF054B18006C
:1022E00002F061F9044B180002F05DF9C046BD46EA
:1022F00080BDC046E00400209804002080B500AFF7
:10230000054B180002F04FF9044B180002F04BF98E
:10231000C046BD4680BDC04670050020280500208F
:1023200080B500AF034B180002F0D8FCC046BD4694
:1023300080BDC0461004002080B500AF034B1800DC
:1023400002F0CCFCC046BD4680BDC04688030020DC
:1023500080B500AF012001F0A5FF022001F0A2FF2F
:10236000C046BD4680BD80B500AF082001F09AFF91
:10237000C046BD4680BD000080B500AF074B5A6B1C
:10238000064B01210A435A63044B9A6B034B80218D
:1023900049050A439A63C046BD4680BD001002400D
:1023A00080B582B000AF78607B68002B01D101233B
:1023B00059E17B685B6D002B0AD17B6800229A652E
:1023C0007B685022002199547B681800FFF74EFD6E
:1023D0007B685B6D10221340102B05D07B681B6857
:1023E0009B68042213400BD07B685B6D10221A435C
:1023F0007B685A657B68502200219954012332E1A1
:102400007B685B6D9A4A134002221A437B685A65C7
:102410007B681B689B6803221340012B08D17B68F3
:102420001B681B6801221340012B01D1012300E02E
:102430000023002B49D17B685A68C0231B069A42AF
:102440000BD07B685A688023DB059A4205D07B68F5
:102450005A6880231B069A4211D17B681B681A694F
:102460007B681B68920092081A617B681B68196977
:102470007B685A687B681B680A431A6114E07B68B2
:102480001B681A697B681B68920092081A61794B75
:102490001A68784B78490A401A60764B19687B684D
:1024A0005A68744B0A431A607B681B68DA687B6859
:1024B0001B6818218A43DA607B681B68D9687B68CF
:1024C0009A687B681B680A43DA606A4B1A68694B32
:1024D0006A490A401A60674B19687B685B6B5A0649
:1024E000644B0A431A607B681B689A6880235B050B
:1024F000134008D17B681B689A687B681B68802141
:1025000049050A439A607B681B68DA687B681B6828
:102510005B490A40DA607B681B68D9687B68DA68C7
:102520007B681B69022B01D1042300E000231A43BE
:102530007B6820201B5C5B031A437B682C201B5CA0
:102540005B001A437B681B6B1A437B689B699B0388
:102550001A437B68DB69DB031A437B681B680A4309
:10256000DA607B685A6AC223FF339A420BD07B68D9
:102570001B68D9687B685A6A7B689B6A1A437B68C8
:102580001B680A43DA607B6821229B5C012B1AD10D
:102590007B6820229B5C002B09D17B681B68DA6872
:1025A0007B681B68802149020A43DA600BE07B6884
:1025B0005B6D20221A437B685A657B689B6D012204
:1025C0001A437B689A657B68DB6B012B1FD17B68A4
:1025D0001B681A697B681B682A490A401A617B6874
:1025E0001B6819697B681A6C7B685B6C1A437B6893
:1025F0009B6C1A437B681B680A431A617B681B68E3
:102600001A697B681B6801210A431A610EE07B6826
:102610001B681B6901221340012B07D17B681B68D3
:102620001A697B681B6801218A431A617B681B68F1
:102630005A697B681B6807218A435A617B681B685B
:1026400059697B689A6B7B681B680A435A617B688F
:1026500000229A657B685B6D0322934301221A4333
:102660007B685A6500231800BD4602B080BDC04695
:10267000FDFEFFFF08270140FFFFC3FFFFFFFFFD37
:102680001902FEFF03FCFFFFB0B584B000AF786015
:102690000F23FB1800221A707B68002B01D1012345
:1026A0007DE07B685B6D02221A437B685A650F25CB
:1026B0007C197B68180000F014FB030023707B1961
:1026C0001B78002B0DD17C197B68180000F0A2FA52
:1026D000030023707B191B78012B02D07B68012239
:1026E0005A650F23FB181B78012B51D07B681B68A0
:1026F0005A687B681B682C490A405A607B681B68D3
:102700002A4A1A607B681B689A687B681B6828499C
:102710000A409A607B681B68DA687B681B682549F9
:102720000A40DA607B681B681A697B681B6822496B
:102730000A401A617B681B685A697B681B6807211D
:102740008A435A617B681B681A6A7B681B681B494D
:102750000A401A627B681B68B4229A587B681B681F
:102760007F218A43B4215A507B681B68B4229A584F
:102770007B681B687F218A43B4215A507B6818000C
:10278000FFF7B0FB7B6800229A657B6800225A65E0
:102790007B685022002199540F23FB181B781800E6
:1027A000BD4604B0B0BDC04660F7FFFF9F08000003
:1027B000FFFFFFEF00023E8302FCFF3F00F000F04E
:1027C00090B585B000AF78600F23FB1800221A7017
:1027D0007B681B689B680422134038D17B685022B9
:1027E0009B5C012B01D1022338E07B685022012140
:1027F00099547B68DB69012B07D00F23FC187B6899
:10280000180000F09FF9030023700F23FB181B78BA
:10281000002B20D17B685B6D124A1340802252004E
:102820001A437B685A657B6800229A657B68502250
:10283000002199547B681B681C221A607B681B6806
:102840009A687B681B6804210A439A6003E00F239F
:10285000FB1802221A700F23FB181B781800BD46C4
:1028600005B090BDFEF0FFFFB0B584B000AF78605A
:102870000F23FB1800221A707B6850229B5C012BEF
:1028800001D1022329E07B685022012199540F25B0
:102890007C197B68180000F024FA030023707B1970
:1028A0001B78002B12D17C197B68180000F0B2F95C
:1028B000030023707B191B78002B07D17B685B6DAD
:1028C000084A134001221A437B685A657B685022EC
:1028D000002199540F23FB181B781800BD4604B043
:1028E000B0BDC046FEFEFFFF80B584B000AF78608B
:1028F00039600023BB600023FB607B685B69082BA9
:1029000002D10823FB6014E07B681B68DB680122AE
:102910001340012B0BD17B685B6D20221A437B682F
:102920005A657B68502200219954012372E00C23E0
:10293000FB6000F047FB0300BB601FE03B68013316
:102940001CD03B68002B07D000F03CFB0200BB68AA
:10295000D31A3A689A4211D27B681B681B68FA68DE
:1029600013400BD17B685B6D04221A437B685A6568
:102970007B6850220021995403234BE07B681B683D
:102980001B68FA681340D9D07B685B6D8022920087
:102990001A437B685A657B681B68DA68C0231B0191
:1029A00013402ED17B6820229B5C002B29D17B68B1
:1029B0001B681B6808221340082B22D17B681B6808
:1029C0009B680422134010D17B681B685A687B689F
:1029D0001B680C218A435A607B685B6D0F4A134069
:1029E00001221A437B685A650BE07B685B6D2022ED
:1029F0001A437B685A657B689B6D01221A437B688A
:102A00009A657B689B69002B03D17B681B680C224D
:102A10001A6000231800BD4604B080BDFEFEFFFF13
:102A200080B582B000AF78607B681B681B6C1800B3
:102A3000BD4602B080BD000080B582B000AF7860B6
:102A400039607B6850229B5C012B01D102236CE032
:102A50007B685022012199547B681B689B68042283
:102A600013400BD07B685B6D20221A437B685A654C
:102A70007B68502200219954012356E03B685B6833
:102A80002C4A934228D07B681B68996A3B681B6874
:102A90005B035A0B7B681B680A439A623B681A689F
:102AA0008023DB02134009D0234B1A68224B80217C
:102AB00009040A431A600A2000F060F93B681A68AA
:102AC00080239B0213402BD01B4B1A681A4B80218A
:102AD000C9030A431A6023E07B681B689A6A3B6853
:102AE0001B685B035B0BD9437B681B680A409A62D7
:102AF0003B681A688023DB02134005D00E4B1A682E
:102B00000D4B0E490A401A603B681A6880239B02ED
:102B1000134005D0084B1A68074B09490A401A6050
:102B20007B6850220021995400231800BD4602B052
:102B300080BDC0460110000008270140FFFF7FFF55
:102B4000FFFFBFFF80B584B000AF78600023FB605B
:102B50007B681B689B6803221340012B08D17B68AC
:102B60001B681B6801221340012B01D1012300E0E7
:102B70000023002B46D17B681B689B68244A1340C6
:102B80000DD07B685B6D10221A437B685A657B68A9
:102B90009B6D01221A437B689A65012333E07B68B1
:102BA0001B689A687B681B6801210A439A600120B0
:102BB00000F0E4F800F006FA0300FB601BE000F010
:102BC00001FA0200FB68D31A0A2B14D97B681B6830
:102BD0001B6801221340012B0DD07B685B6D102216
:102BE0001A437B685A657B689B6D01221A437B6898
:102BF0009A65012307E07B681B681B68012213406C
:102C0000012BDCD100231800BD4604B080BDC046B6
:102C10001700008080B584B000AF78600023FB60AF
:102C20007B681B689B6803221340012B08D17B68DB
:102C30001B681B6801221340012B01D1012300E016
:102C40000023002B48D07B681B689B68052213403B
:102C5000012B10D17B681B689A687B681B68022176
:102C60000A439A607B681B6803221A6000F0AAF985
:102C70000300FB6029E07B685B6D10221A437B68D0
:102C80005A657B689B6D01221A437B689A65012314
:102C900023E000F097F90200FB68D31A0A2B14D93D
:102CA0007B681B689B6801221340012B0DD17B6858
:102CB0005B6D10221A437B685A657B689B6D01220D
:102CC0001A437B689A65012307E07B681B689B6851
:102CD00001221340012BDCD000231800BD4604B0B4
:102CE00080BD80B584B000AF78600023FB607B6856
:102CF0001B689B68042213403AD07B681B689B6862
:102D000004221340042B0DD17B681B689B680222B0
:102D1000134007D17B681B689A687B681B68102189
:102D20000A439A6000F04EF90300FB601AE000F0DD
:102D300049F90200FB68D31A0A2B13D97B681B6878
:102D40009B68042213400DD07B685B6D10221A43F0
:102D50007B685A657B689B6D01221A437B689A6584
:102D6000012306E07B681B689B6804221340DED1C8
:102D700000231800BD4604B080BD000080B584B0BB
:102D800000AF78600B4B1B680B491800FDF7BCF9CE
:102D900003001A007B685343FB6002E0FB68013BC1
:102DA000FB60FB68002BF9D1C046C046BD4604B0AD
:102DB00080BDC0469800002040420F0080B586B01C
:102DC00000AF786039601723FB1800221A700023C7
:102DD0003B610023FB607B6850229B5C012B01D18F
:102DE000022383E07B685022012199547B681B6891
:102DF0009B6803221340012B08D17B681B681B686A
:102E000001221340012B01D1012300E00023002BFC
:102E10005BD17B685B6D374A134002221A437B68A3
:102E20005A657B681B68DB6803221340FB607B6884
:102E30001B68DA687B681B6803218A43DA607B6859
:102E40001B689A687B681B68802109060A439A60A0
:102E500000F0B8F803003B611DE000F0B3F8020099
:102E60003B69D31A0A2B16D97B681B689B68DB0F5A
:102E7000DA0780231B069A420DD17B685B6D122214
:102E8000934310221A437B685A657B6850220021C5
:102E9000995401232AE07B681B689B68DB0FDA07E3
:102EA00080231B069A42D8D07B681B68D9687B6850
:102EB0001B68FA680A43DA607B685B6D0322934300
:102EC00001221A437B685A6509E07B685B6D20220A
:102ED0001A437B685A651723FB1801221A707B6816
:102EE0005022002199541723FB181B781800BD4667
:102EF00006B080BDFDFEFFFF80B582B000AFFB1DB8
:102F000000221A700B4B1A680A4B40210A431A60C0
:102F1000032000F011F8031E03D0FB1D01221A70DC
:102F200001E0FFF729FAFB1D1B781800BD4602B02F
:102F300080BDC0460020024090B583B000AF7860ED
:102F4000144B1C68144B1B781900FA239800FDF7EA
:102F5000DBF8030019002000FDF7D6F80300180085
:102F600001F02BFD031E01D001230FE07B68032B32
:102F70000BD8796801235B420022180001F0F8FCAD
:102F8000064B7A681A60002300E001231800BD4652
:102F900003B090BD98000020940000209000002015
:102FA00080B500AF054B1B781A00054B1B68D21883
:102FB000034B1A60C046BD4680BDC0469400002049
:102FC000B805002080B500AF024B1B681800BD4655
:102FD00080BDC046B805002080B584B000AF7860E1
:102FE000FFF7F0FF0300BB607B68FB60FB68013309
:102FF00005D00A4B1B781A00FB689B18FB60C04683
:10300000FFF7E0FF0200BB68D31AFA689A42F7D8CC
:10301000C046C046BD4604B080BDC04694000020F6
:1030200080B500AF044B1A68034B02218A431A6033
:10303000C046BD4680BDC04610E000E080B500AF90
:10304000044B1A68034B02210A431A60C046BD466E
:1030500080BDC04610E000E0B0B58AB000AF786037
:103060007B68002B02D1012300F06CFBC84BDB68AE
:103070000C221340FB61C64BDA6880235B021340CD
:10308000BB617B681B680122134000D17DE0FB69B6
:10309000082B07D0FB690C2B12D1BA6980235B0285
:1030A0009A420DD1BA4B1A6880239B02134000D17B
:1030B0006AE07B685B68002B66D1012300F042FB6D
:1030C0007B685A6880235B029A4207D1B04B1A682A
:1030D000AF4B802149020A431A6027E07B685A6897
:1030E000A023DB029A420ED1A94B1A68A84B80217B
:1030F000C9020A431A60A64B1A68A54B80214902EF
:103100000A431A6012E0A24B1A68A14BA1490A4077
:103110001A609F4B1A6880235B021340FB60FB68B8
:103120009B4B1A689A4B9C490A401A607B685B6803
:10313000002B14D0FFF746FF03007B6108E0FFF788
:1031400041FF02007B69D31A642B01D90323F9E202
:103150008F4B1A6880239B021340F0D015E0FFF7D5
:1031600031FF03007B6108E0FFF72CFF02007B6961
:10317000D31A642B01D90323E4E2854B1A68802318
:103180009B021340F0D100E0C0467B681B6802221E
:10319000134000D199E07B68DB687B627B6A202268
:1031A000134009D07A4B1A68794B20210A431A60E0
:1031B0007B6A202293437B62FB69042B05D0FB6969
:1031C0000C2B3ED1BB69002B3BD1714B1B680422F9
:1031D000134004D07B6A002B01D10123B2E26C4B77
:1031E0005B686E4A134019007B681B691A02684BC2
:1031F0000A435A60664B1B68092293431900644BCB
:103200007A6A0A431A6000F0EBFB0100604BDB684E
:103210001B090F221340624AD35C0A00DA40614B5B
:103220001A60614B1B6813257C191800FFF784FE98
:10323000030023707B191B78002B46D07B191B7869
:1032400080E27B6A002B27D0514B1B6809229343F5
:1032500019004F4B7A6A0A431A60FFF7B3FE030066
:103260007B6108E0FFF7AEFE02007B69D31A022BF8
:1032700001D9032366E2464B1B6804221340F1D0B8
:10328000434B5B68454A134019007B681B691A026F
:103290003F4B0A435A6018E03D4B1A683C4B0121F2
:1032A0008A431A60FFF78EFE03007B6108E0FFF798
:1032B00089FE02007B69D31A022B01D9032341E264
:1032C000334B1B6804221340F1D17B681B6810222A
:1032D000134000D1A1E0FB69002B40D12C4B1A68B0
:1032E00080239B00134005D07B689B69002B01D194
:1032F000012327E2264B5B682C4A134019007B68A8
:103300001A6A234B0A435A60214B5B681B02190A55
:103310007B68DB691A061E4B0A435A607B681B6A8E
:103320005B0B0133802212029A40194BDB681B09A8
:103330000F210B401A49CB5CDA401A4B1A601A4B2A
:103340001B6813257C191800FFF7F6FD0300237096
:103350007B191B78002B60D07B191B78F2E17B680E
:103360009B69002B3FD00A4B1A68094B802149000A
:103370000A431A60FFF726FE03007B6118E0FFF79F
:1033800021FE02007B69D31A022B11D90323D9E154
:1033900000100240FFFFFEFFFFFFFBFFFFE0FFFF0B
:1033A000886E00089800002090000020FF1FFFFF9B
:1033B000C94B1A6880239B001340E0D0C64B5B6862
:1033C000C64A134019007B681A6AC34B0A435A6005
:1033D000C14B5B681B02190A7B68DB691A06BE4B8E
:1033E0000A435A6019E0BC4B1A68BB4BBC490A40FF
:1033F0001A60FFF7E7FD03007B6108E0FFF7E2FDDD
:1034000002007B69D31A022B01D903239AE1B24B44
:103410001A6880239B001340F0D17B681B68082248
:10342000134036D07B685B69002B19D0AA4B1A6D0C
:10343000A94B01210A431A65FFF7C4FD03007B6114
:1034400008E0FFF7BFFD02007B69D31A022B01D908
:10345000032377E1A04B1B6D02221340F1D018E04B
:103460009D4B1A6D9C4B01218A431A65FFF7AAFDFB
:1034700003007B6108E0FFF7A5FD02007B69D31A1A
:10348000022B01D903235DE1934B1B6D02221340F4
:10349000F1D17B681B680422134000D1AEE02320E9
:1034A0003B1800221A708C4B9A6B80235B051340EB
:1034B00009D1894B9A6B884B802149050A439A634D
:1034C0003B1801221A70874B1A6880235B00134057
:1034D0001AD1844B1A68834B802149000A431A6031
:1034E000FFF770FD03007B6108E0FFF76BFD020052
:1034F0007B69D31A642B01D9032323E1794B1A6822
:1035000080235B001340F0D07B689A6880235B00C7
:103510009A4207D1704B1A6D6F4B802149000A43C4
:103520001A6531E07B689B68002B0CD16A4B1A6DE1
:10353000694B6B490A401A65674B1A6D664B6A49BD
:103540000A401A6520E07B689A68A023DB009A4253
:103550000ED1614B1A6D604B8021C9000A431A6578
:103560005D4B1A6D5C4B802149000A431A650BE0E4
:10357000594B1A6D584B5A490A401A65564B1A6DE9
:10358000554B59490A401A657B689B68002B15D03A
:10359000FFF718FD03007B6109E0FFF713FD020050
:1035A0007B69D31A514A934201D90323CAE04A4B9B
:1035B0001A6D80239B001340EFD014E0FFF702FD4B
:1035C00003007B6109E0FFF7FDFC02007B69D31A71
:1035D000464A934201D90323B4E03F4B1A6D80233E
:1035E0009B001340EFD12323FB181B78012B05D13F
:1035F000394B9A6B384B3E490A409A637B685B6A49
:10360000002B00D19DE0FB690C2B00D176E07B689C
:103610005B6A022B45D1304B1A682F4B35490A4063
:103620001A60FFF7CFFC03007B6108E0FFF7CAFCDC
:1036300002007B69D31A022B01D9032382E0264BB7
:103640001A6880239B041340F0D1234BDB682A4A7D
:10365000134019007B689A6A7B68DB6A1A437B68AF
:103660001B6B1A431C4B0A43DA601B4B1A681A4B3C
:10367000802149040A431A60FFF7A4FC03007B6120
:1036800008E0FFF79FFC02007B69D31A022B01D9E7
:10369000032357E0104B1A6880239B041340F0D09B
:1036A0004FE00D4B1A680C4B12490A401A60FFF7A5
:1036B00089FC03007B6108E0FFF784FC02007B6962
:1036C000D31A022B01D903233CE0034B1A68802351
:1036D0009B041340F0D134E000100240FF1FFFFFB5
:1036E000FFFEFFFF00700040FFFBFFFF881300009C
:1036F000FFFFFFEFFFFFFFFEFFFF02FF7B685B6A3C
:10370000012B01D101231DE0104BDB68BB61BA69BD
:1037100080235B021A407B689B6A9A420FD1BA6988
:10372000F0239B031A407B68DB6A9A4207D1BA698F
:10373000C0231B041A407B681B6B9A4201D00123F3
:1037400000E000231800BD460AB0B0BD00100240E2
:10375000B0B584B000AF786039607B68002B01D1D0
:10376000012328E1964B1B68012213403A689A42D4
:103770001ED9934B1B68012293431900904B3A6862
:103780000A431A60FFF71EFC0300FB6009E0FFF725
:1037900019FC0200FB68D31A8A4A934201D9032319
:1037A00009E1874B1B68012213403A689A42EED127
:1037B0007B681B680222134009D0834BDB68F02230
:1037C000934319007B689A687F4B0A43DA607B68F1
:1037D0001B680122134000D189E07B685B68022BE3
:1037E00007D1794B1A6880239B02134020D1012313
:1037F000E1E07B685B68032B07D1734B1A68802379
:103800009B04134014D10123D5E07B685B68012B36
:1038100006D16D4B1B680422134009D10123CAE075
:10382000694B1A6880239B00134001D10123C2E039
:10383000654BDB680322934319007B685A68624B2F
:103840000A43DA60FFF7BEFB0300FB607B685B683E
:10385000022B11D109E0FFF7B5FB0200FB68D31A78
:10386000584A934201D90323A5E0574BDB680C2249
:103870001340082BEFD13AE07B685B68032B11D132
:1038800009E0FFF79FFB0200FB68D31A4D4A934201
:1038900001D903238FE04C4BDB680C2213400C2B27
:1038A000EFD124E07B685B68012B1BD109E0FFF7B7
:1038B00089FB0200FB68D31A424A934201D90323D1
:1038C00079E0414BDB680C221340042BEFD10EE072
:1038D000FFF778FB0200FB68D31A3A4A934201D9FA
:1038E000032368E0384BDB680C221340F0D1344BE3
:1038F0001B68012213403A689A421ED2304B1B6863
:103900000122934319002E4B3A680A431A60FFF7CD
:1039100059FB0300FB6009E0FFF754FB0200FB6862
:10392000D31A284A934201D9032344E0244B1B684D
:10393000012213403A689A42EED17B681B68042248
:10394000134009D0204BDB68204A134019007B68E4
:10395000DA681D4B0A43DA607B681B680822134053
:103960000AD0194BDB681A4A134019007B681B699F
:10397000DA00154B0A43DA6000F032F80100124B0E
:10398000DB681B090F221340124AD35C0A00DA409D
:10399000114B1A60114B1B680B257C191800FFF79F
:1039A000CBFA030023707B191B78002B02D07B1904
:1039B0001B7800E000231800BD4604B0B0BDC0462F
:1039C000002002408813000000100240FFF8FFFFB3
:1039D000FFC7FFFF886E00089800002090000020BD
:1039E00080B586B000AF3C4BDB68FB60FB680C2207
:1039F00013400C2B13D05CD8042B02D0082B0BD017
:103A000057E0354B1B681022134002D0334B3B610B
:103A10005DE0334B3B615AE0324B3B6157E0FB6862
:103A20009B0C0F221340304AD35CBB60FB689B0D9C
:103A30000322134001337B60274BDA6880235B024B
:103A400013400FD0B9680A005201521A93019B1A11
:103A5000DB005B185B0279681800FCF755FB03007C
:103A60007B6123E01C4B1B68102213400FD0B96808
:103A70000A005201521A93019B1ADB005B181B02C9
:103A800079681800FCF740FB03007B610EE0B96821
:103A90000A005201521A93019B1ADB005B189B0229
:103AA00079681800FCF730FB03007B617B693B61A0
:103AB0000DE0094B5B685B0B072213403B603B68E2
:103AC0000133802212029A4013003B61C0463B69D9
:103AD0001800BD4606B080BD0010024000093D0040
:103AE0000024F40000127A00A06E000880B500AF38
:103AF000024B1B681800BD4680BDC04698000020E0
:103B000080B500AFFFF7F2FF0100064BDB681B0A30
:103B100007221340044AD35CD9400B001800BD466D
:103B200080BDC04600100240986E000880B500AF0E
:103B3000FFF7DCFF0100064BDB68DB0A07221340BE
:103B4000044AD35CD9400B001800BD4680BDC04676
:103B500000100240986E000880B586B000AF786013
:103B600017203B1800221A707B681B682022134024
:103B700000D1C7E0844B9A6B80235B05134009D1C9
:103B8000814B9A6B804B802149050A439A633B180D
:103B900001221A707D4B1A6880235B0013401AD1F2
:103BA0007A4B1A68794B802149000A431A60FFF763
:103BB00009FA03003B6108E0FFF704FA02003B69E1
:103BC000D31A642B01D90323D9E0704B1A688023E0
:103BD0005B001340F0D06C4B1A68C0239B0313406A
:103BE000FB607B685A68C0239B031340FA689A42C3
:103BF00013D07B685A68C0239B021A40C0239B02E3
:103C00009A420AD1604B1A6880239B021A40802393
:103C10009B029A4201D10123B1E05B4B1A6DC02394
:103C20009B021340FB60FB68002B3BD07B685A680B
:103C3000C0239B021340FA689A4233D07B681B680A
:103C4000202213402ED0504B1B6D514A1340FB6075
:103C50004D4B1A6D4C4B802109030A431A654A4BA0
:103C60001A6D494B4B490A401A65474BFA681A6569
:103C7000FA6880235B00134014D0FFF7A3F9030018
:103C80003B6109E0FFF79EF902003B69D31A424A03
:103C9000934201D9032372E03B4B1A6D80239B00B2
:103CA0001340EFD07B681B68202213401FD07B6835
:103CB0005A68C0239B021A40C0239B029A420CD12F
:103CC000314B1B68354A134019007B685A68C02382
:103CD0009B031A402C4B0A431A602B4B196D7B68CF
:103CE0005A68C0239B021A40274B0A431A651723C0
:103CF000FB181B78012B05D1234B9A6B224B2849CB
:103D00000A409A637B681B680222134009D01E4B4D
:103D1000DB6C0C22934319007B689A681A4B0A43A8
:103D2000DA647B681B680422134009D0164BDB6CF5
:103D30001C4A134019007B68DA68134B0A43DA64A3
:103D40007B681B680822134009D00F4BDB6C164AB6
:103D5000134019007B681A690B4B0A43DA647B68CD
:103D60001B688022134009D0074BDB6C0F4A1340BD
:103D700019007B685A69044B0A43DA64002318006F
:103D8000BD4606B080BDC046001002400070004035
:103D9000FFFFFCFFFFFFF7FF88130000FFFFCFFFCF
:103DA000FFFFFFEFFFF3FFFFFFCFFFFFFFFFF3FF7B
:103DB00080B586B000AF7860396000237B61002356
:103DC000FB6000233B6149E13B681B6801217A6984
:103DD00091400A001340FB60FB68002B00D13AE1E0
:103DE0003B685B6803221340012B05D03B685B688E
:103DF00003221340022B30D17B689B683B617B69B7
:103E00005B0003229A401300DA433B6913403B6195
:103E10003B68DA687B695B009A4013003A69134398
:103E20003B617B683A699A607B685B683B61012211
:103E30007B699A401300DA433B6913403B613B685E
:103E40005B681B0901221A407B699A4013003A699A
:103E500013433B617B683A695A603B685B680322A5
:103E60001340032B17D07B68DB683B617B695B00E9
:103E700003229A401300DA433B6913403B613B68DD
:103E80009A687B695B009A4013003A6913433B616F
:103E90007B683A69DA603B685B6803221340022B57
:103EA00023D17B69DA087B6808329200D3583B61E2
:103EB0007B69072213409B000F229A401300DA43CC
:103EC0003B6913403B613B681A697B6907210B40E2
:103ED0009B009A4013003A6913433B617B69DA08FF
:103EE0007B68083292003969D1507B681B683B615E
:103EF0007B695B0003229A401300DA433B6913405D
:103F00003B613B685B6803221A407B695B009A4017
:103F100013003A6913433B617B683A691A603B6856
:103F20005A68C0239B02134000D194E0514B5A6B56
:103F3000504B01210A435A634F4A7B699B08023365
:103F40009B009B583B617B69032213409B000F221F
:103F50009A401300DA433B6913403B617A68A0231F
:103F6000DB059A4213D07B68444A93420DD07B68AC
:103F7000434A934207D07B68424A934201D10523CA
:103F800006E0062304E0022302E0012300E0002310
:103F90007A6903210A40920093403A6913433B61D6
:103FA00035497B699B0802339B003A695A50364B6E
:103FB0009B683B61FB68DA433B6913403B613B68AC
:103FC0005A6880235B03134003D03A69FB681343AC
:103FD0003B612D4B3A699A602B4BDB683B61FB6878
:103FE000DA433B6913403B613B685A6880239B037B
:103FF000134003D03A69FB6813433B61224B3A6993
:10400000DA60214B5B683B61FB68DA433B69134034
:104010003B613B685A6880239B02134003D03A6996
:10402000FB6813433B61184B3A695A60164B1B6897
:104030003B61FB68DA433B6913403B613B685A686C
:1040400080235B02134003D03A69FB6813433B6152
:104050000D4B3A691A607B6901337B613B681A68D2
:104060007B69DA40131E00D0AEE6C046C046BD46AE
:1040700006B080BD00100240000001400004005066
:1040800000080050001C00500004014080B586B0BC
:1040900000AF7860396000237B6100233B6100231F
:1040A000FB60B0E001227B699A403B6813403B61B2
:1040B0003B69002B00D1A3E0584A7B699B0802337F
:1040C0009B009B58FB607B69032213409B000F22DF
:1040D0009A40FB681340FB607A68A023DB059A4294
:1040E00013D07B684E4A93420DD07B684D4A934271
:1040F00007D07B684C4A934201D1052306E0062392
:1041000004E0022302E0012300E000237A69032196
:104110000A4092009340FA689A4232D1434B1A689F
:104120003B69D943414B0A401A60404B5A683B698E
:10413000D9433E4B0A405A603C4BDA683B69D9434D
:104140003A4B0A40DA60394B9A683B69D943374B9E
:104150000A409A607B69032213409B000F229A4019
:104160001300FB602D4A7B699B0802339B009A5821
:10417000FB68D94329487B699B080A4002339B00AE
:104180001A507B681A687B695B00032199400B0019
:104190001A437B681A607B69DA087B6808329200F0
:1041A000D3587A6907210A4092000F2191400A00F2
:1041B000D1437A69D20819407B6808329200D15005
:1041C0007B68DB687A695200032191400A00D24380
:1041D0001A407B68DA607B685B6801217A699140EC
:1041E0000A00D2431A407B685A607B689B687A69F0
:1041F0005200032191400A00D2431A407B689A6022
:104200007B6901337B613A687B69DA40131E00D019
:1042100048E7C046C046BD4606B080BD000001402C
:104220000004005000080050001C00500004014031
:1042300080B584B000AF78600A00BB1C1A807B6830
:104240001B69BA1C1288134004D00F23FB180122EB
:104250001A7003E00F23FB1800221A700F23FB18BB
:104260001B781800BD4604B080BD80B582B000AF99
:10427000786008001100BB1C021C1A807B1C0A1C01
:104280001A707B1C1B78002B04D0BB1C1A887B681F
:104290009A6103E0BB1C1A887B689A62C046BD46DF
:1042A00002B080BD80B582B000AF0200BB1D1A8095
:1042B000094B5B69BA1D1288134008D0064BBA1D22
:1042C00012885A61BB1D1B881800FDF719FAC046F9
:1042D000BD4602B080BDC0460004014080B584B038
:1042E00000AF78607B68002B01D1012361E07B681F
:1042F0001B68324A9446634414211800FBF704FFFC
:1043000003009A007B685A647B682D4A1A647B68B4
:104310002522022199547B681B681B68FB60FB689F
:10432000284A1340FB607B689A687B68DB681A4305
:104330007B681B691A437B685B691A437B689B69CE
:104340001A437B68DB691A437B681B6A1343FA686C
:104350001343FB607B681B68FA681A607B689A6885
:104360008023DB019A4218D0174B1A687B685B6C7C
:104370001C210B400F2199400B00D943124B0A40DE
:104380001A60114B19687B685A687B685B6C1C204B
:1043900003409A400C4B0A431A607B680022DA63A0
:1043A0007B682522012199547B682422002199549D
:1043B00000231800BD4604B080BDC046F8FFFDBF15
:1043C000000002400F80FFFFA800024080B586B0C9
:1043D00000AFF860B9607A603B601723FB180022D9
:1043E0001A70FB6824229B5C012B01D102234FE051
:1043F000FB68242201219954FB6825229B5CDBB2D7
:10440000012B3AD1FB68252202219954FB68002236
:10441000DA63FB681B681A68FB681B6801218A4322
:104420001A603B687A68B968F86800F06AF9FB6856
:104430001B6B002B08D0FB681B681A68FB681B68A5
:104440000E210A431A600FE0FB681B681A68FB68BC
:104450001B6804218A431A60FB681B681A68FB68A2
:104460001B680A210A431A60FB681B681A68FB680C
:104470001B6801210A431A6007E0FB68242200211F
:1044800099541723FB1802221A701723FB181B7864
:104490001800BD4606B080BD80B584B000AF78601E
:1044A0000F23FB1800221A707B6825229B5CDBB26D
:1044B000022B08D07B680422DA637B682422002167
:1044C0009954012324E07B681B681A687B681B6889
:1044D0000E218A431A607B681B681A687B681B6818
:1044E00001218A431A607B685B6C1C221A407B683E
:1044F0001B6C012191400A005A607B682522012132
:1045000099547B682422002199540F23FB181B78AF
:104510001800BD4604B080BD80B584B000AF78609F
:104520000F217B1800221A707B6825229B5CDBB26E
:10453000022B06D07B680422DA637B1801221A70F2
:104540002AE07B681B681A687B681B680E218A4317
:104550001A607B681B681A687B681B6801218A43A4
:104560001A607B685B6C1C221A407B681B6C012103
:1045700091400A005A607B682522012199547B688A
:104580002422002199547B689B6B002B04D07B680C
:104590009B6B7A68100098470F23FB181B78180054
:1045A000BD4604B080BD80B584B000AF78607B6844
:1045B0001B6C1B68FB607B681B681B68BB607B68AF
:1045C0005B6C1C22134004229A401300FA681340CB
:1045D00026D0BB680422134022D07B681B681B686E
:1045E0002022134007D17B681B681A687B681B6810
:1045F00004218A431A607B685B6C1C221A407B682A
:104600001B6C042191400A005A607B681B6B002BD5
:1046100000D171E07B681B6B7A68100098476BE0F3
:104620007B685B6C1C22134002229A401300FA68DC
:1046300013402DD0BB680222134029D07B681B6831
:104640001B68202213400BD17B681B681A687B68AB
:104650001B680A218A431A607B682522012199542C
:104660007B685B6C1C221A407B681B6C02219140AA
:104670000A005A607B682422002199547B68DB6A17
:10468000002B39D07B68DB6A7A681000984733E0EA
:104690007B685B6C1C22134008229A401300FA6866
:1046A00013402AD0BB680822134026D07B681B68C1
:1046B0001A687B681B680E218A431A607B685B6CF2
:1046C0001C221A407B681B6C012191400A005A6031
:1046D0007B680122DA637B682522012199547B687B
:1046E0002422002199547B685B6B002B05D07B68EA
:1046F0005B6B7A6810009847C046C046BD4604B060
:1047000080BD80B584B000AFF860B9607A603B606E
:10471000FB685B6C1C221A40FB681B6C01219140FA
:104720000A005A60FB681B683A685A60FB689B681D
:10473000102B08D1FB681B687A689A60FB681B68BD
:10474000BA68DA6007E0FB681B68BA689A60FB68C1
:104750001B687A68DA60C046BD4604B080BD0000C0
:1047600080B586B000AF78600A00FB1C1A70002389
:104770007B61254B1A6880239B0013403B61234BD0
:104780001B6A01221340FB603B69002B08D0FB68C9
:10479000002B05D01C4B1A681B4B1D490A401A60A0
:1047A000194B1B687B617B69032293437B617A69A8
:1047B0007B6813437B61144B7A691A60154B1A6945
:1047C000144B04210A431A61FB1C1B78012B01D1F5
:1047D00030BF02E040BF20BF20BF0E4B1A690D4B17
:1047E00004218A431A613B69002B09D0FB68002B26
:1047F00006D0054B1A68044B802189000A431A60D1
:10480000C046BD4606B080BD0070004000000140BB
:10481000FFFDFFFF00ED00E080B582B000AF0200B9
:10482000FB1D1A70FB1D1B787F2B09D8FB1D1B7805
:104830001A001F231A40044B012191400A001A60FC
:10484000C046BD4602B080BD00E100E090B583B037
:1048500000AF02003960FB1D1A70FB1D1B787F2B17
:1048600028D82F4AFB1D1B785BB29B08C0339B00E6
:104870009B58FA1D1278110003220A40D200FF2132
:1048800091400A00D2431A4011003B689B01FF226D
:104890001A40FB1D1B78180003230340DB009A40DD
:1048A0001F48FB1D1B785BB29B080A43C0339B006B
:1048B0001A5031E01B4AFB1D1B7819000F230B40D7
:1048C000083B9B0806339B00D31804331B68FA1D72
:1048D0001278110003220A40D200FF2191400A0001
:1048E000D2431A4011003B689B01FF221A40FB1D76
:1048F0001B78180003230340DB009A400948FB1D86
:104900001B781C000F232340083B9B080A430633F7
:104910009B00C31804331A60C046BD4603B090BD67
:1049200000E100E000ED00E080B582B000AF78600B
:104930007B685A1E80235B049A4201D3012310E056
:104940000A4B7A68013A5A6001235B42032118003E
:10495000FFF77CFF054B00229A60044B07221A6088
:1049600000231800BD4602B080BDC04610E000E044
:1049700080B584B000AFB9607A600F217B18021C4B
:104980001A70BA687B181B785BB211001800FFF729
:104990005DFFC046BD4604B080BD80B582B000AFAB
:1049A0000200FB1D1A70FB1D1B785BB21800FFF79D
:1049B00033FFC046BD4602B080BD80B582B000AFB7
:1049C00078607B681800FFF7AFFF03001800BD4652
:1049D00002B080BD80B582B000AF78607B68002BEC
:1049E00001D1012344E07B68DB6F002B07D17B689A
:1049F0007822002199547B681800FDF717FB7B682B
:104A00002422DA677B681B681A687B681B680121AF
:104A10008A431A607B685B6A002B03D07B681800AE
:104A200000F0C6FE7B68180000F078FC0300012B44
:104A300001D101231CE07B681B685A687B681B68F6
:104A40000D490A405A607B681B689A687B681B683E
:104A50002A218A439A607B681B681A687B681B68F6
:104A600001210A431A607B68180000F055FF03001B
:104A70001800BD4602B080BDFFB7FFFF80B58AB009
:104A800002AFF860B9603B60BB1D1A80FB68DB6F4A
:104A9000202B00D08CE0BB68002B03D0BB1D1B88F3
:104AA000002B01D1012384E0FB689A6880235B011D
:104AB0009A4209D1FB681B69002B05D1BB68012212
:104AC000134001D0012374E0FB6884220021995037
:104AD000FB682122DA67FEF775FA03007B61FB6849
:104AE000BA1D502112885A52FB68BA1D52211288F1
:104AF0005A52FB689A6880235B019A4208D1FB688E
:104B00001B69002B04D10023FB61BB68BB6103E080
:104B1000BB68FB610023BB612FE07A69F8683B68E2
:104B2000009313000022802100F09EFF031E04D09A
:104B3000FB682022DA6703233BE0FB69002B0BD1E3
:104B4000BB691B881A00FB681B68D205D20D9A62EC
:104B5000BB690233BB6107E0FB691A78FB681B681D
:104B60009A62FB690133FB61FB6852229B5A9BB23C
:104B7000013B99B2FB6852229952FB6852229B5A20
:104B80009BB2002BC9D17A69F8683B680093130087
:104B90000022402100F068FF031E04D0FB682022A1
:104BA000DA67032305E0FB682022DA67002300E0D0
:104BB00002231800BD4608B080BD000080B588B053
:104BC00000AFF860B960BB1D1A80FB68DB6F202B5B
:104BD00000D077E0BB68002B03D0BB1D1B88002BE7
:104BE00001D101236FE0FB689A6880235B019A4240
:104BF00009D1FB681B69002B05D1BB68012213405A
:104C000001D001235FE0FB68BA68DA64FB68BA1D73
:104C1000502112885A52FB68BA1D522112885A52EA
:104C2000FB68842200219950FB682122DA67FB6827
:104C30001B6F002B27D0FB681B6F254ADA62FB68CD
:104C40001B6F244A1A63FB681B6F234A5A63FB6875
:104C50001B6F00229A63FB68186FFB68DB6C1900FE
:104C6000FB681B6828331A00BB1D1B88FFF7AEFBCF
:104C7000031E08D0FB68842210219950FB68202273
:104C8000DA6701231FE0FB681B6840221A62EFF31A
:104C900010833B613B69FB6101237B617B6983F38B
:104CA0001088C046FB681B689A68FB681B688021F7
:104CB0000A439A60FB69BB61BB6983F31088C046F5
:104CC000002300E002231800BD4608B080BDC046A6
:104CD000995D0008315E00083760000890B5ABB000
:104CE00000AF78607B681B68DB69A422B9180B6091
:104CF0007B681B681B68A02039180B607B681B68E9
:104D00009B689C2179180B601100BB181B68994A9D
:104D100013409822BC182360BB181B68002B14D1C9
:104D20007B181B68202213400FD03B181B682022E1
:104D300013400AD07B689B6E002B00D1BEE27B68DB
:104D40009B6E7A6810009847B8E29823FB181B689E
:104D5000002B00D114E19C23FB181B680122134097
:104D600006D1A023FB181B68834A134000D107E13A
:104D7000A423FB181B680122134012D0A023FB18A8
:104D80001A6880235B0013400BD07B681B680122EC
:104D90001A627B6884229B5801221A437B68842113
:104DA0005A50A423FB181B680222134011D09C23E5
:104DB000FB181B68012213400BD07B681B68022282
:104DC0001A627B6884229B5804221A437B688421E0
:104DD0005A50A423FB181B680422134011D09C23B3
:104DE000FB181B68012213400BD07B681B68042250
:104DF0001A627B6884229B5802221A437B688421B2
:104E00005A50A423FB181B680822134017D0A02374
:104E1000FB181B682022134005D19C23FB181B683C
:104E2000012213400BD07B681B6808221A627B6842
:104E300084229B5808221A437B6884215A50A42359
:104E4000FB181A6880231B01134013D0A023FB1802
:104E50001A688023DB0413400CD07B681B68802217
:104E600012011A627B6884229B5820221A437B68B5
:104E700084215A507B6884229B58002B00D11FE26A
:104E8000A423FB181B68202213400ED0A023FB187C
:104E90001B682022134008D07B689B6E002B04D037
:104EA0007B689B6E7A68100098477B6884229B58C9
:104EB00094217A1813607B681B689B68402213401A
:104EC000402B04D07B181B682822134047D07B68F6
:104ED000180000F0FDFE7B681B689B6840221340B1
:104EE000402B37D1EFF310833B663B6E90203A188E
:104EF000136001237B667B6E83F31088C0467B685A
:104F00001B689A687B681B6840218A439A603B183B
:104F10001B68BB66BB6E83F31088C0467B685B6F03
:104F2000002B12D07B685B6F144A9A637B685B6FBF
:104F30001800FFF7F1FA031E1AD07B685B6F9A6BBB
:104F40007B685B6F1800904712E07B681800FCF7E5
:104F5000E7F80DE07B681800FCF7E2F808E07B68F2
:104F60001800FCF7DDF87B68842200219950A7E146
:104F7000C046A5E10F08000020010004BB60000846
:104F80007B681B6E012B00D059E1A423FB181B6822
:104F90001022134000D152E1A023FB181B681022FD
:104FA000134000D14BE17B681B6810221A627B68BA
:104FB0001B689B6840221340402B00D0BFE07B68F9
:104FC0005B6F1B685A687E217B181A807B181B88D0
:104FD000002B00D195E07B6858229B5A7A181288E2
:104FE0009A4200D38DE07B687A185A2112885A526F
:104FF0007B685B6F1B681B68202213406FD1EFF347
:1050000010833B633B6BBB6701237B637B6B83F349
:105010001088C0467B681B681A687B681B68AD49AE
:105020000A401A60BB6FBB63BB6B83F31088C0463A
:10503000EFF31083FB63FB6B7B6701233B643B6CEB
:1050400083F31088C0467B681B689A687B681B687E
:1050500001218A439A607B6F7B647B6C83F31088A9
:10506000C046EFF31083BB64BB6C3B670123FB645A
:10507000FB6C83F31088C0467B681B689A687B686A
:105080001B6840218A439A603B6F3B653B6D83F30D
:105090001088C0467B688022202199507B680022BE
:1050A0001A66EFF310837B657B6DFB660123BB659E
:1050B000BB6D83F31088C0467B681B681A687B68E9
:1050C0001B6810218A431A60FB6EFB65FB6D83F33E
:1050D0001088C0467B685B6F1800FFF7DDF97B68BE
:1050E00002225A667B6858229A5A7B685A215B5A78
:1050F0009BB2D31A9AB27B6811001800FBF7E2FF4B
:10510000E0E07B6858229B5A7E22BA1812889A42A5
:1051100000D0D7E07B685B6F1B681B6820221340C0
:10512000202B00D0CEE07B6802225A667B68582292
:105130009A5A7B6811001800FBF7C4FFC2E07B6835
:105140005822995A7B685A229B5A9AB28E203B1851
:105150008A1A1A807B685A229B5A9BB2002B00D174
:10516000B2E03B181B88002B00D1ADE0EFF31083B9
:10517000FB60FB6888243A19136001233B613B699B
:1051800083F31088C0467B681B681A687B681B68BD
:1051900051490A401A603B191B687B617B6983F3A4
:1051A0001088C046EFF31083BB61BB6984243A19B1
:1051B00013600123FB61FB6983F31088C0467B68A1
:1051C0001B689A687B681B6801218A439A603B19B7
:1051D0001B683B623B6A83F31088C0467B68802271
:1051E000202199507B6800221A667B6800229A660B
:1051F000EFF310837B627B6A80243A1913600123EA
:10520000BB62BB6A83F31088C0467B681B681A6860
:105210007B681B6810218A431A603B191B68FB627C
:10522000FB6A83F31088C0467B6802225A663B18EB
:105230001A887B6811001800FBF744FF44E0A423A0
:10524000FB181A6880235B03134010D09C23FB18C3
:105250001A688023DB03134009D07B681B68802217
:1052600052031A627B68180000F065FF2FE0A42348
:10527000FB181B68802213400FD0A023FB181B686B
:105280008022134009D07B68DB6E002B1ED07B6828
:10529000DB6E7A681000984718E0A423FB181B689F
:1052A0004022134013D0A023FB181B684022134058
:1052B0000DD07B68180000F013FF08E0C04606E040
:1052C000C04604E0C04602E0C04600E0C046BD461D
:1052D0002BB090BDFFFEFFFFDFFEFFFF80B582B069
:1052E00000AF7860C046BD4602B080BD80B582B0D8
:1052F00000AF7860C046BD4602B080BD80B582B0C8
:1053000000AF7860C046BD4602B080BD80B582B0B7
:1053100000AF7860C046BD4602B080BDB0B58EB06B
:1053200000AFF8611A2318229B18DB1900221A70AB
:10533000FB699A68FB691B691A43FB695B691A433D
:10534000FB69DB6913437B63FB691B681B68B44A19
:1053500013401900FB691B687A6B0A431A60FB69EA
:105360001B685B68AF4A13401900FB69DA68FB6988
:105370001B680A435A60FB699B697B63FB691B6876
:10538000A94A934204D0FB691B6A7A6B13437B637F
:10539000FB691B689B68A54A13401900FB691B68E1
:1053A0007A6B0A439A60FB691B68A14A934231D128
:1053B000A04BDB6C0C2213400C2B1DD023D8082BE8
:1053C0000CD020D8002B02D0042B0ED01BE01B23C6
:1053D00018229B18DB1900221A7065E01B23182283
:1053E0009B18DB1902221A705EE01B2318229B18FF
:1053F000DB1904221A7057E01B2318229B18DB19B3
:1054000008221A7050E01B2318229B18DB19102267
:105410001A7049E0FB691B68834A93423ED1854B71
:10542000DA6CC0231B011340C0221201934227D023
:10543000C022120193422AD880221201934211D035
:1054400080221201934222D8002B04D08022D20065
:1054500093420ED01BE01B2318229B18DB1900225D
:105460001A7021E01B2318229B18DB1902221A70E4
:105470001AE01B2318229B18DB1904221A7013E070
:105480001B2318229B18DB1908221A700CE01B231F
:1054900018229B18DB1910221A7005E01B23182212
:1054A0009B18DB1910221A70FB691B685E4A934235
:1054B00000D084E01B2318229B18DB191B78082BD3
:1054C0001DD020DC042B15D01DDC002B02D0022BBC
:1054D00005D018E0FEF714FB0300FB621CE0554BFF
:1054E0001B681022134002D0534BFB6214E0534B55
:1054F000FB6211E0FEF774FA0300FB620CE080230C
:105500001B02FB6208E00023FB621A2318229B188F
:10551000DB1901221A70C046FB6A002B00D12FE173
:10552000FB695A6813005B009B18FA6A9A4205D31C
:10553000FB695B681B03FA6A9A4206D91A23182290
:105540009B18DB1901221A701AE1FB6A3B610023E8
:105550007B6139697A690B001B0E100005021D433F
:105560000B001C02FB695B685B08BB600023FB60EF
:10557000B868F96800196941FB695B683B60002302
:105580007B603A687B68FAF74BFE02000B00130061
:10559000BB62BA6AC0239B009A4209D3BA6A8023CD
:1055A0005B039A4204D2FB691B68BA6ADA60E7E0DF
:1055B0001A2318229B18DB1901221A70E0E0FB69FC
:1055C000DA6980231B029A4200D082E01B23182252
:1055D0009B18DB191B78082B34D89A00184BD3186A
:1055E0001B689F46FEF78CFA0300FB6233E0FEF770
:1055F0009DFA0300FB622EE00E4B1B681022134045
:1056000002D00D4BFB6226E00C4BFB6223E0FEF761
:10561000E7F90300FB621EE080231B02FB621AE035
:10562000F369FFEFFFCFFFFF00480040FFF4FFFFEB
:10563000004400400010024000093D000024F40036
:10564000406E00080023FB621A2318229B18DB1906
:1056500001221A70C046FB6A002B00D190E0FB6A61
:105660005A00FB695B685B08D218FB695B6819002C
:105670001000FAF749FD0300BB62BB6A0F2B21D96A
:10568000BA6A80235B029A421CD2BB6A9AB20E208D
:1056900018240319DB190F218A431A80BB6A5B089F
:1056A0009BB20722134099B20319DB190219D219D0
:1056B00012880A431A80FB691B680219D2191288E2
:1056C000DA605DE01A2318229B18DB1901221A7098
:1056D00056E01B2318229B18DB191B78082B22D8B5
:1056E0009A002F4BD3181B689F46FEF709FA030058
:1056F000FB6221E0FEF71AFA0300FB621CE0294B73
:105700001B681022134002D0274BFB6214E0274B8A
:10571000FB6211E0FEF764F90300FB620CE08023FA
:105720001B02FB6208E00023FB621A2318229B186D
:10573000DB1901221A70C046FB6A002B20D0FB69DE
:105740005B685A08FB6AD218FB695B681900100095
:10575000FAF7DAFC0300BB62BB6A0F2B0AD9BA6AFC
:1057600080235B029A4205D2BB6A9AB2FB691B682E
:10577000DA6005E01A2318229B18DB1901221A703F
:10578000FB6900229A66FB690022DA661A23182256
:105790009B18DB191B781800BD460EB0B0BDC04683
:1057A000646E00080010024000093D000024F4006F
:1057B00080B582B000AF78607B685B6A08221340D6
:1057C0000BD07B681B685B684A4A134019007B68F2
:1057D0005A6B7B681B680A435A607B685B6A0122CC
:1057E00013400BD07B681B685B68434A1340190069
:1057F0007B689A6A7B681B680A435A607B685B6AAD
:10580000022213400BD07B681B685B683B4A134045
:1058100019007B68DA6A7B681B680A435A607B68F8
:105820005B6A042213400BD07B681B685B68344AB8
:10583000134019007B681A6B7B681B680A435A6027
:105840007B685B6A102213400BD07B681B689B68E7
:105850002C4A134019007B689A6B7B681B680A43CB
:105860009A607B685B6A202213400BD07B681B68C0
:105870009B68254A134019007B68DA6B7B681B68BC
:105880000A439A607B685B6A402213401DD07B68A4
:105890001B685B681D4A134019007B681A6C7B68A3
:1058A0001B680A435A607B681A6C80235B039A4228
:1058B0000BD17B681B685B68154A134019007B6835
:1058C0005A6C7B681B680A435A607B685B6A80225B
:1058D00013400BD07B681B685B680E4A13401900AD
:1058E0007B689A6C7B681B680A435A60C046BD4659
:1058F00002B080BDFF7FFFFFFFFFFDFFFFFFFEFF48
:10590000FFFFFBFFFFEFFFFFFFDFFFFFFFFFEFFFEB
:10591000FFFF9FFFFFFFF7FF80B592B002AF7860F7
:105920007B68842200219950FDF74CFB0300FB6348
:105930007B681B681B6808221340082B2CD1FB6B6B
:10594000802291037868464A0092002200F08CF889
:10595000031E21D0EFF310837B627B6ABB630123BC
:10596000BB62BB6A83F31088C0467B681B681A68F9
:105970007B681B6880218A431A60BB6BFB62FB6AF1
:1059800083F31088C0467B682022DA677B68782220
:105990000021995403235FE07B681B681B68042285
:1059A0001340042B46D1FB6B8022D10378682C4A2C
:1059B0000092002200F058F8031E3BD0EFF3108352
:1059C000FB60FB687B6301233B613B6983F31088C9
:1059D000C0467B681B681A687B681B6821490A40BF
:1059E0001A607B6B7B617B6983F31088C046EFF3A1
:1059F0001083BB61BB693B630123FB61FB6983F3DC
:105A00001088C0467B681B689A687B681B68012108
:105A10008A439A603B6B3B623B6A83F31088C046C3
:105A20007B688022202199507B687822002199543C
:105A3000032311E07B682022DA677B688022202123
:105A400099507B6800221A667B6800225A667B6840
:105A500078220021995400231800BD4610B080BD63
:105A6000FFFFFF01DFFEFFFF80B584B000AFF860ED
:105A7000B9603B60FB1D1A7051E0BB6901334ED029
:105A8000FDF7A0FA02003B68D31ABA699A4202D322
:105A9000BB69002B01D1032351E0FB681B681B6825
:105AA000042213403BD0BB68802B38D0BB68402B0E
:105AB00035D0FB681B68DB6908221340082B11D125
:105AC000FB681B6808221A62FB68180000F000F9E6
:105AD000FB68842208219950FB68782200219954A0
